{
  "contractName": "VContract",
  "abi": [
    {
      "inputs": [
        {
          "internalType": "string",
          "name": "name",
          "type": "string"
        },
        {
          "internalType": "string",
          "name": "symbol",
          "type": "string"
        },
        {
          "internalType": "string",
          "name": "baseTokenURI",
          "type": "string"
        }
      ],
      "stateMutability": "nonpayable",
      "type": "constructor"
    },
    {
      "anonymous": false,
      "inputs": [
        {
          "indexed": true,
          "internalType": "address",
          "name": "owner",
          "type": "address"
        },
        {
          "indexed": true,
          "internalType": "address",
          "name": "approved",
          "type": "address"
        },
        {
          "indexed": true,
          "internalType": "uint256",
          "name": "tokenId",
          "type": "uint256"
        }
      ],
      "name": "Approval",
      "type": "event"
    },
    {
      "anonymous": false,
      "inputs": [
        {
          "indexed": true,
          "internalType": "address",
          "name": "owner",
          "type": "address"
        },
        {
          "indexed": true,
          "internalType": "address",
          "name": "operator",
          "type": "address"
        },
        {
          "indexed": false,
          "internalType": "bool",
          "name": "approved",
          "type": "bool"
        }
      ],
      "name": "ApprovalForAll",
      "type": "event"
    },
    {
      "anonymous": false,
      "inputs": [
        {
          "indexed": false,
          "internalType": "address",
          "name": "account",
          "type": "address"
        }
      ],
      "name": "Paused",
      "type": "event"
    },
    {
      "anonymous": false,
      "inputs": [
        {
          "indexed": true,
          "internalType": "bytes32",
          "name": "role",
          "type": "bytes32"
        },
        {
          "indexed": true,
          "internalType": "bytes32",
          "name": "previousAdminRole",
          "type": "bytes32"
        },
        {
          "indexed": true,
          "internalType": "bytes32",
          "name": "newAdminRole",
          "type": "bytes32"
        }
      ],
      "name": "RoleAdminChanged",
      "type": "event"
    },
    {
      "anonymous": false,
      "inputs": [
        {
          "indexed": true,
          "internalType": "bytes32",
          "name": "role",
          "type": "bytes32"
        },
        {
          "indexed": true,
          "internalType": "address",
          "name": "account",
          "type": "address"
        },
        {
          "indexed": true,
          "internalType": "address",
          "name": "sender",
          "type": "address"
        }
      ],
      "name": "RoleGranted",
      "type": "event"
    },
    {
      "anonymous": false,
      "inputs": [
        {
          "indexed": true,
          "internalType": "bytes32",
          "name": "role",
          "type": "bytes32"
        },
        {
          "indexed": true,
          "internalType": "address",
          "name": "account",
          "type": "address"
        },
        {
          "indexed": true,
          "internalType": "address",
          "name": "sender",
          "type": "address"
        }
      ],
      "name": "RoleRevoked",
      "type": "event"
    },
    {
      "anonymous": false,
      "inputs": [
        {
          "indexed": true,
          "internalType": "address",
          "name": "from",
          "type": "address"
        },
        {
          "indexed": true,
          "internalType": "address",
          "name": "to",
          "type": "address"
        },
        {
          "indexed": true,
          "internalType": "uint256",
          "name": "tokenId",
          "type": "uint256"
        }
      ],
      "name": "Transfer",
      "type": "event"
    },
    {
      "anonymous": false,
      "inputs": [
        {
          "indexed": false,
          "internalType": "address",
          "name": "account",
          "type": "address"
        }
      ],
      "name": "Unpaused",
      "type": "event"
    },
    {
      "inputs": [],
      "name": "DEFAULT_ADMIN_ROLE",
      "outputs": [
        {
          "internalType": "bytes32",
          "name": "",
          "type": "bytes32"
        }
      ],
      "stateMutability": "view",
      "type": "function",
      "constant": true
    },
    {
      "inputs": [],
      "name": "MINTER_ROLE",
      "outputs": [
        {
          "internalType": "bytes32",
          "name": "",
          "type": "bytes32"
        }
      ],
      "stateMutability": "view",
      "type": "function",
      "constant": true
    },
    {
      "inputs": [],
      "name": "PAUSER_ROLE",
      "outputs": [
        {
          "internalType": "bytes32",
          "name": "",
          "type": "bytes32"
        }
      ],
      "stateMutability": "view",
      "type": "function",
      "constant": true
    },
    {
      "inputs": [
        {
          "internalType": "address",
          "name": "to",
          "type": "address"
        },
        {
          "internalType": "uint256",
          "name": "tokenId",
          "type": "uint256"
        }
      ],
      "name": "approve",
      "outputs": [],
      "stateMutability": "nonpayable",
      "type": "function"
    },
    {
      "inputs": [
        {
          "internalType": "address",
          "name": "owner",
          "type": "address"
        }
      ],
      "name": "balanceOf",
      "outputs": [
        {
          "internalType": "uint256",
          "name": "",
          "type": "uint256"
        }
      ],
      "stateMutability": "view",
      "type": "function",
      "constant": true
    },
    {
      "inputs": [
        {
          "internalType": "uint256",
          "name": "tokenId",
          "type": "uint256"
        }
      ],
      "name": "burn",
      "outputs": [],
      "stateMutability": "nonpayable",
      "type": "function"
    },
    {
      "inputs": [
        {
          "internalType": "uint256",
          "name": "tokenId",
          "type": "uint256"
        }
      ],
      "name": "getApproved",
      "outputs": [
        {
          "internalType": "address",
          "name": "",
          "type": "address"
        }
      ],
      "stateMutability": "view",
      "type": "function",
      "constant": true
    },
    {
      "inputs": [
        {
          "internalType": "bytes32",
          "name": "role",
          "type": "bytes32"
        }
      ],
      "name": "getRoleAdmin",
      "outputs": [
        {
          "internalType": "bytes32",
          "name": "",
          "type": "bytes32"
        }
      ],
      "stateMutability": "view",
      "type": "function",
      "constant": true
    },
    {
      "inputs": [
        {
          "internalType": "bytes32",
          "name": "role",
          "type": "bytes32"
        },
        {
          "internalType": "uint256",
          "name": "index",
          "type": "uint256"
        }
      ],
      "name": "getRoleMember",
      "outputs": [
        {
          "internalType": "address",
          "name": "",
          "type": "address"
        }
      ],
      "stateMutability": "view",
      "type": "function",
      "constant": true
    },
    {
      "inputs": [
        {
          "internalType": "bytes32",
          "name": "role",
          "type": "bytes32"
        }
      ],
      "name": "getRoleMemberCount",
      "outputs": [
        {
          "internalType": "uint256",
          "name": "",
          "type": "uint256"
        }
      ],
      "stateMutability": "view",
      "type": "function",
      "constant": true
    },
    {
      "inputs": [
        {
          "internalType": "bytes32",
          "name": "role",
          "type": "bytes32"
        },
        {
          "internalType": "address",
          "name": "account",
          "type": "address"
        }
      ],
      "name": "grantRole",
      "outputs": [],
      "stateMutability": "nonpayable",
      "type": "function"
    },
    {
      "inputs": [
        {
          "internalType": "bytes32",
          "name": "role",
          "type": "bytes32"
        },
        {
          "internalType": "address",
          "name": "account",
          "type": "address"
        }
      ],
      "name": "hasRole",
      "outputs": [
        {
          "internalType": "bool",
          "name": "",
          "type": "bool"
        }
      ],
      "stateMutability": "view",
      "type": "function",
      "constant": true
    },
    {
      "inputs": [
        {
          "internalType": "address",
          "name": "owner",
          "type": "address"
        },
        {
          "internalType": "address",
          "name": "operator",
          "type": "address"
        }
      ],
      "name": "isApprovedForAll",
      "outputs": [
        {
          "internalType": "bool",
          "name": "",
          "type": "bool"
        }
      ],
      "stateMutability": "view",
      "type": "function",
      "constant": true
    },
    {
      "inputs": [],
      "name": "name",
      "outputs": [
        {
          "internalType": "string",
          "name": "",
          "type": "string"
        }
      ],
      "stateMutability": "view",
      "type": "function",
      "constant": true
    },
    {
      "inputs": [
        {
          "internalType": "uint256",
          "name": "tokenId",
          "type": "uint256"
        }
      ],
      "name": "ownerOf",
      "outputs": [
        {
          "internalType": "address",
          "name": "",
          "type": "address"
        }
      ],
      "stateMutability": "view",
      "type": "function",
      "constant": true
    },
    {
      "inputs": [],
      "name": "paused",
      "outputs": [
        {
          "internalType": "bool",
          "name": "",
          "type": "bool"
        }
      ],
      "stateMutability": "view",
      "type": "function",
      "constant": true
    },
    {
      "inputs": [
        {
          "internalType": "uint256",
          "name": "",
          "type": "uint256"
        }
      ],
      "name": "properties",
      "outputs": [
        {
          "internalType": "string",
          "name": "URI",
          "type": "string"
        }
      ],
      "stateMutability": "view",
      "type": "function",
      "constant": true
    },
    {
      "inputs": [
        {
          "internalType": "uint256",
          "name": "",
          "type": "uint256"
        }
      ],
      "name": "propertyToToken",
      "outputs": [
        {
          "internalType": "uint256",
          "name": "",
          "type": "uint256"
        }
      ],
      "stateMutability": "view",
      "type": "function",
      "constant": true
    },
    {
      "inputs": [
        {
          "internalType": "bytes32",
          "name": "role",
          "type": "bytes32"
        },
        {
          "internalType": "address",
          "name": "account",
          "type": "address"
        }
      ],
      "name": "renounceRole",
      "outputs": [],
      "stateMutability": "nonpayable",
      "type": "function"
    },
    {
      "inputs": [
        {
          "internalType": "bytes32",
          "name": "role",
          "type": "bytes32"
        },
        {
          "internalType": "address",
          "name": "account",
          "type": "address"
        }
      ],
      "name": "revokeRole",
      "outputs": [],
      "stateMutability": "nonpayable",
      "type": "function"
    },
    {
      "inputs": [
        {
          "internalType": "address",
          "name": "from",
          "type": "address"
        },
        {
          "internalType": "address",
          "name": "to",
          "type": "address"
        },
        {
          "internalType": "uint256",
          "name": "tokenId",
          "type": "uint256"
        }
      ],
      "name": "safeTransferFrom",
      "outputs": [],
      "stateMutability": "nonpayable",
      "type": "function"
    },
    {
      "inputs": [
        {
          "internalType": "address",
          "name": "from",
          "type": "address"
        },
        {
          "internalType": "address",
          "name": "to",
          "type": "address"
        },
        {
          "internalType": "uint256",
          "name": "tokenId",
          "type": "uint256"
        },
        {
          "internalType": "bytes",
          "name": "_data",
          "type": "bytes"
        }
      ],
      "name": "safeTransferFrom",
      "outputs": [],
      "stateMutability": "nonpayable",
      "type": "function"
    },
    {
      "inputs": [
        {
          "internalType": "address",
          "name": "operator",
          "type": "address"
        },
        {
          "internalType": "bool",
          "name": "approved",
          "type": "bool"
        }
      ],
      "name": "setApprovalForAll",
      "outputs": [],
      "stateMutability": "nonpayable",
      "type": "function"
    },
    {
      "inputs": [],
      "name": "symbol",
      "outputs": [
        {
          "internalType": "string",
          "name": "",
          "type": "string"
        }
      ],
      "stateMutability": "view",
      "type": "function",
      "constant": true
    },
    {
      "inputs": [
        {
          "internalType": "uint256",
          "name": "index",
          "type": "uint256"
        }
      ],
      "name": "tokenByIndex",
      "outputs": [
        {
          "internalType": "uint256",
          "name": "",
          "type": "uint256"
        }
      ],
      "stateMutability": "view",
      "type": "function",
      "constant": true
    },
    {
      "inputs": [
        {
          "internalType": "address",
          "name": "owner",
          "type": "address"
        },
        {
          "internalType": "uint256",
          "name": "index",
          "type": "uint256"
        }
      ],
      "name": "tokenOfOwnerByIndex",
      "outputs": [
        {
          "internalType": "uint256",
          "name": "",
          "type": "uint256"
        }
      ],
      "stateMutability": "view",
      "type": "function",
      "constant": true
    },
    {
      "inputs": [
        {
          "internalType": "uint256",
          "name": "tokenId",
          "type": "uint256"
        }
      ],
      "name": "tokenURI",
      "outputs": [
        {
          "internalType": "string",
          "name": "",
          "type": "string"
        }
      ],
      "stateMutability": "view",
      "type": "function",
      "constant": true
    },
    {
      "inputs": [],
      "name": "totalSupply",
      "outputs": [
        {
          "internalType": "uint256",
          "name": "",
          "type": "uint256"
        }
      ],
      "stateMutability": "view",
      "type": "function",
      "constant": true
    },
    {
      "inputs": [
        {
          "internalType": "address",
          "name": "from",
          "type": "address"
        },
        {
          "internalType": "address",
          "name": "to",
          "type": "address"
        },
        {
          "internalType": "uint256",
          "name": "tokenId",
          "type": "uint256"
        }
      ],
      "name": "transferFrom",
      "outputs": [],
      "stateMutability": "nonpayable",
      "type": "function"
    },
    {
      "inputs": [
        {
          "internalType": "uint256",
          "name": "tokenId",
          "type": "uint256"
        }
      ],
      "name": "propertyURI",
      "outputs": [
        {
          "internalType": "string",
          "name": "",
          "type": "string"
        }
      ],
      "stateMutability": "view",
      "type": "function",
      "constant": true
    },
    {
      "inputs": [
        {
          "internalType": "uint256",
          "name": "tokenId",
          "type": "uint256"
        },
        {
          "internalType": "string",
          "name": "_uri",
          "type": "string"
        }
      ],
      "name": "updatePropertyURI",
      "outputs": [],
      "stateMutability": "nonpayable",
      "type": "function"
    },
    {
      "inputs": [
        {
          "internalType": "address",
          "name": "to",
          "type": "address"
        },
        {
          "internalType": "string",
          "name": "_propertyURI",
          "type": "string"
        }
      ],
      "name": "mint",
      "outputs": [],
      "stateMutability": "nonpayable",
      "type": "function"
    },
    {
      "inputs": [
        {
          "internalType": "bytes4",
          "name": "interfaceId",
          "type": "bytes4"
        }
      ],
      "name": "supportsInterface",
      "outputs": [
        {
          "internalType": "bool",
          "name": "",
          "type": "bool"
        }
      ],
      "stateMutability": "view",
      "type": "function",
      "constant": true
    }
  ],
  "bytecode": "0x60806040523480156200001157600080fd5b50604051620051c2380380620051c2833981810160405281019062000037919062000514565b8282816002908051906020019062000051929190620003e6565b5080600390805190602001906200006a929190620003e6565b5050506000600c60006101000a81548160ff02191690831515021790555080600d9080519060200190620000a0929190620003e6565b50620000c56000801b620000b96200015060201b60201c565b6200015860201b60201c565b620001067f9f2df0fed2c77648de5860a4cc508cd0818c85b8b8a1ab4ceeef8d981c8956a6620000fa6200015060201b60201c565b6200015860201b60201c565b620001477f65d7a28e3265b37a6474929f336521b332c1681b933f6cb9f3376673440d862a6200013b6200015060201b60201c565b6200015860201b60201c565b50505062000751565b600033905090565b6200016f8282620001a060201b620015531760201c565b6200019b8160016000858152602001908152602001600020620001b660201b620015611790919060201c565b505050565b620001b28282620001ee60201b60201c565b5050565b6000620001e6836000018373ffffffffffffffffffffffffffffffffffffffff1660001b620002df60201b60201c565b905092915050565b6200020082826200035960201b60201c565b620002db57600160008084815260200190815260200160002060000160008373ffffffffffffffffffffffffffffffffffffffff1673ffffffffffffffffffffffffffffffffffffffff16815260200190815260200160002060006101000a81548160ff021916908315150217905550620002806200015060201b60201c565b73ffffffffffffffffffffffffffffffffffffffff168173ffffffffffffffffffffffffffffffffffffffff16837f2f8788117e7eff1d82e926ec794901d17c78024a50270940304540a733656f0d60405160405180910390a45b5050565b6000620002f38383620003c360201b60201c565b6200034e57826000018290806001815401808255809150506001900390600052602060002001600090919091909150558260000180549050836001016000848152602001908152602001600020819055506001905062000353565b600090505b92915050565b600080600084815260200190815260200160002060000160008373ffffffffffffffffffffffffffffffffffffffff1673ffffffffffffffffffffffffffffffffffffffff16815260200190815260200160002060009054906101000a900460ff16905092915050565b600080836001016000848152602001908152602001600020541415905092915050565b828054620003f49062000662565b90600052602060002090601f01602090048101928262000418576000855562000464565b82601f106200043357805160ff191683800117855562000464565b8280016001018555821562000464579182015b828111156200046357825182559160200191906001019062000446565b5b50905062000473919062000477565b5090565b5b808211156200049257600081600090555060010162000478565b5090565b6000620004ad620004a784620005f6565b620005cd565b905082815260208101848484011115620004cc57620004cb62000731565b5b620004d98482856200062c565b509392505050565b600082601f830112620004f957620004f86200072c565b5b81516200050b84826020860162000496565b91505092915050565b60008060006060848603121562000530576200052f6200073b565b5b600084015167ffffffffffffffff81111562000551576200055062000736565b5b6200055f86828701620004e1565b935050602084015167ffffffffffffffff81111562000583576200058262000736565b5b6200059186828701620004e1565b925050604084015167ffffffffffffffff811115620005b557620005b462000736565b5b620005c386828701620004e1565b9150509250925092565b6000620005d9620005ec565b9050620005e7828262000698565b919050565b6000604051905090565b600067ffffffffffffffff821115620006145762000613620006fd565b5b6200061f8262000740565b9050602081019050919050565b60005b838110156200064c5780820151818401526020810190506200062f565b838111156200065c576000848401525b50505050565b600060028204905060018216806200067b57607f821691505b60208210811415620006925762000691620006ce565b5b50919050565b620006a38262000740565b810181811067ffffffffffffffff82111715620006c557620006c4620006fd565b5b80604052505050565b7f4e487b7100000000000000000000000000000000000000000000000000000000600052602260045260246000fd5b7f4e487b7100000000000000000000000000000000000000000000000000000000600052604160045260246000fd5b600080fd5b600080fd5b600080fd5b600080fd5b6000601f19601f8301169050919050565b614a6180620007616000396000f3fe608060405234801561001057600080fd5b50600436106101fb5760003560e01c80636352211e1161011a578063b88d4fde116100ad578063d53913931161007c578063d53913931461061e578063d547741f1461063c578063e63ab1e914610658578063e985e9c514610676578063f7b10808146106a6576101fb565b8063b88d4fde14610586578063c87b56dd146105a2578063ca15c873146105d2578063d0def52114610602576101fb565b806395d89b41116100e957806395d89b41146104fe578063a217fddf1461051c578063a22cb4651461053a578063b7e4f08814610556576101fb565b80636352211e1461043e57806370a082311461046e5780639010d07c1461049e57806391d14854146104ce576101fb565b80632f2ff15d1161019257806342966c681161016157806342966c68146103b85780634812a229146103d45780634f6ccce7146103f05780635c975abb14610420576101fb565b80632f2ff15d146103345780632f745c591461035057806336568abe1461038057806342842e0e1461039c576101fb565b8063095ea7b3116101ce578063095ea7b3146102ae57806318160ddd146102ca57806323b872dd146102e8578063248a9ca314610304576101fb565b8063010774721461020057806301ffc9a71461023057806306fdde0314610260578063081812fc1461027e575b600080fd5b61021a600480360381019061021591906135a7565b6106d6565b6040516102279190613e34565b60405180910390f35b61024a6004803603810190610245919061354d565b6106ee565b6040516102579190613b1c565b60405180910390f35b610268610700565b6040516102759190613b52565b60405180910390f35b610298600480360381019061029391906135a7565b610792565b6040516102a59190613ab5565b60405180910390f35b6102c860048036038101906102c39190613460565b610817565b005b6102d261092f565b6040516102df9190613e34565b60405180910390f35b61030260048036038101906102fd91906132ee565b61093c565b005b61031e600480360381019061031991906134a0565b61099c565b60405161032b9190613b37565b60405180910390f35b61034e600480360381019061034991906134cd565b6109bb565b005b61036a60048036038101906103659190613460565b6109ef565b6040516103779190613e34565b60405180910390f35b61039a600480360381019061039591906134cd565b610a94565b005b6103b660048036038101906103b191906132ee565b610ac8565b005b6103d260048036038101906103cd91906135a7565b610ae8565b005b6103ee60048036038101906103e991906135d4565b610b44565b005b61040a600480360381019061040591906135a7565b610c4f565b6040516104179190613e34565b60405180910390f35b610428610cc0565b6040516104359190613b1c565b60405180910390f35b610458600480360381019061045391906135a7565b610cd7565b6040516104659190613ab5565b60405180910390f35b61048860048036038101906104839190613281565b610d89565b6040516104959190613e34565b60405180910390f35b6104b860048036038101906104b3919061350d565b610e41565b6040516104c59190613ab5565b60405180910390f35b6104e860048036038101906104e391906134cd565b610e70565b6040516104f59190613b1c565b60405180910390f35b610506610eda565b6040516105139190613b52565b60405180910390f35b610524610f6c565b6040516105319190613b37565b60405180910390f35b610554600480360381019061054f91906133c4565b610f73565b005b610570600480360381019061056b91906135a7565b6110f4565b60405161057d9190613b52565b60405180910390f35b6105a0600480360381019061059b9190613341565b6111c0565b005b6105bc60048036038101906105b791906135a7565b611222565b6040516105c99190613b52565b60405180910390f35b6105ec60048036038101906105e791906134a0565b6112c9565b6040516105f99190613e34565b60405180910390f35b61061c60048036038101906106179190613404565b6112ed565b005b610626611391565b6040516106339190613b37565b60405180910390f35b610656600480360381019061065191906134cd565b6113b5565b005b6106606113e9565b60405161066d9190613b37565b60405180910390f35b610690600480360381019061068b91906132ae565b61140d565b60405161069d9190613b1c565b60405180910390f35b6106c060048036038101906106bb91906135a7565b6114a1565b6040516106cd9190613b52565b60405180910390f35b60106020528060005260406000206000915090505481565b60006106f982611591565b9050919050565b60606002805461070f90614118565b80601f016020809104026020016040519081016040528092919081815260200182805461073b90614118565b80156107885780601f1061075d57610100808354040283529160200191610788565b820191906000526020600020905b81548152906001019060200180831161076b57829003601f168201915b5050505050905090565b600061079d8261160b565b6107dc576040517f08c379a00000000000000000000000000000000000000000000000000000000081526004016107d390613d14565b60405180910390fd5b6006600083815260200190815260200160002060009054906101000a900473ffffffffffffffffffffffffffffffffffffffff169050919050565b600061082282610cd7565b90508073ffffffffffffffffffffffffffffffffffffffff168373ffffffffffffffffffffffffffffffffffffffff161415610893576040517f08c379a000000000000000000000000000000000000000000000000000000000815260040161088a90613d74565b60405180910390fd5b8073ffffffffffffffffffffffffffffffffffffffff166108b2611677565b73ffffffffffffffffffffffffffffffffffffffff1614806108e157506108e0816108db611677565b61140d565b5b610920576040517f08c379a000000000000000000000000000000000000000000000000000000000815260040161091790613c94565b60405180910390fd5b61092a838361167f565b505050565b6000600a80549050905090565b61094d610947611677565b82611738565b61098c576040517f08c379a000000000000000000000000000000000000000000000000000000000815260040161098390613d94565b60405180910390fd5b610997838383611816565b505050565b6000806000838152602001908152602001600020600101549050919050565b6109c58282611a72565b6109ea816001600085815260200190815260200160002061156190919063ffffffff16565b505050565b60006109fa83610d89565b8210610a3b576040517f08c379a0000000000000000000000000000000000000000000000000000000008152600401610a3290613bb4565b60405180910390fd5b600860008473ffffffffffffffffffffffffffffffffffffffff1673ffffffffffffffffffffffffffffffffffffffff168152602001908152602001600020600083815260200190815260200160002054905092915050565b610a9e8282611a9b565b610ac38160016000858152602001908152602001600020611b1e90919063ffffffff16565b505050565b610ae3838383604051806020016040528060008152506111c0565b505050565b610af9610af3611677565b82611738565b610b38576040517f08c379a0000000000000000000000000000000000000000000000000000000008152600401610b2f90613df4565b60405180910390fd5b610b4181611b4e565b50565b610b757f9f2df0fed2c77648de5860a4cc508cd0818c85b8b8a1ab4ceeef8d981c8956a6610b70611677565b610e70565b610bb4576040517f08c379a0000000000000000000000000000000000000000000000000000000008152600401610bab90613dd4565b60405180910390fd5b6000601060008481526020019081526020016000205490506000600f8281548110610be257610be16142b1565b5b90600052602060002001905082816000019080519060200190610c06929190612ff3565b5080600f8381548110610c1c57610c1b6142b1565b5b906000526020600020016000820181600001908054610c3a90614118565b610c45929190613079565b5090505050505050565b6000610c5961092f565b8210610c9a576040517f08c379a0000000000000000000000000000000000000000000000000000000008152600401610c9190613db4565b60405180910390fd5b600a8281548110610cae57610cad6142b1565b5b90600052602060002001549050919050565b6000600c60009054906101000a900460ff16905090565b6000806004600084815260200190815260200160002060009054906101000a900473ffffffffffffffffffffffffffffffffffffffff169050600073ffffffffffffffffffffffffffffffffffffffff168173ffffffffffffffffffffffffffffffffffffffff161415610d80576040517f08c379a0000000000000000000000000000000000000000000000000000000008152600401610d7790613cd4565b60405180910390fd5b80915050919050565b60008073ffffffffffffffffffffffffffffffffffffffff168273ffffffffffffffffffffffffffffffffffffffff161415610dfa576040517f08c379a0000000000000000000000000000000000000000000000000000000008152600401610df190613cb4565b60405180910390fd5b600560008373ffffffffffffffffffffffffffffffffffffffff1673ffffffffffffffffffffffffffffffffffffffff168152602001908152602001600020549050919050565b6000610e688260016000868152602001908152602001600020611c5f90919063ffffffff16565b905092915050565b600080600084815260200190815260200160002060000160008373ffffffffffffffffffffffffffffffffffffffff1673ffffffffffffffffffffffffffffffffffffffff16815260200190815260200160002060009054906101000a900460ff16905092915050565b606060038054610ee990614118565b80601f0160208091040260200160405190810160405280929190818152602001828054610f1590614118565b8015610f625780601f10610f3757610100808354040283529160200191610f62565b820191906000526020600020905b815481529060010190602001808311610f4557829003601f168201915b5050505050905090565b6000801b81565b610f7b611677565b73ffffffffffffffffffffffffffffffffffffffff168273ffffffffffffffffffffffffffffffffffffffff161415610fe9576040517f08c379a0000000000000000000000000000000000000000000000000000000008152600401610fe090613c54565b60405180910390fd5b8060076000610ff6611677565b73ffffffffffffffffffffffffffffffffffffffff1673ffffffffffffffffffffffffffffffffffffffff16815260200190815260200160002060008473ffffffffffffffffffffffffffffffffffffffff1673ffffffffffffffffffffffffffffffffffffffff16815260200190815260200160002060006101000a81548160ff0219169083151502179055508173ffffffffffffffffffffffffffffffffffffffff166110a3611677565b73ffffffffffffffffffffffffffffffffffffffff167f17307eab39ab6107e8899845ad3d59bd9653f200f220920489ca2b5937696c31836040516110e89190613b1c565b60405180910390a35050565b6060600060106000848152602001908152602001600020549050600f8181548110611122576111216142b1565b5b90600052602060002001600001805461113a90614118565b80601f016020809104026020016040519081016040528092919081815260200182805461116690614118565b80156111b35780601f10611188576101008083540402835291602001916111b3565b820191906000526020600020905b81548152906001019060200180831161119657829003601f168201915b5050505050915050919050565b6111d16111cb611677565b83611738565b611210576040517f08c379a000000000000000000000000000000000000000000000000000000000815260040161120790613d94565b60405180910390fd5b61121c84848484611c79565b50505050565b606061122d8261160b565b61126c576040517f08c379a000000000000000000000000000000000000000000000000000000000815260040161126390613d54565b60405180910390fd5b6000611276611cd5565b9050600081511161129657604051806020016040528060008152506112c1565b806112a084611cec565b6040516020016112b1929190613a57565b6040516020818303038152906040525b915050919050565b60006112e660016000848152602001908152602001600020611e4d565b9050919050565b61131e7f9f2df0fed2c77648de5860a4cc508cd0818c85b8b8a1ab4ceeef8d981c8956a6611319611677565b610e70565b61135d576040517f08c379a000000000000000000000000000000000000000000000000000000000815260040161135490613c14565b60405180910390fd5b6113708261136b600e611e62565b611e70565b61138361137d600e611e62565b8261203e565b61138d600e6120c6565b5050565b7f9f2df0fed2c77648de5860a4cc508cd0818c85b8b8a1ab4ceeef8d981c8956a681565b6113bf82826120dc565b6113e48160016000858152602001908152602001600020611b1e90919063ffffffff16565b505050565b7f65d7a28e3265b37a6474929f336521b332c1681b933f6cb9f3376673440d862a81565b6000600760008473ffffffffffffffffffffffffffffffffffffffff1673ffffffffffffffffffffffffffffffffffffffff16815260200190815260200160002060008373ffffffffffffffffffffffffffffffffffffffff1673ffffffffffffffffffffffffffffffffffffffff16815260200190815260200160002060009054906101000a900460ff16905092915050565b600f81815481106114b157600080fd5b906000526020600020016000915090508060000180546114d090614118565b80601f01602080910402602001604051908101604052809291908181526020018280546114fc90614118565b80156115495780601f1061151e57610100808354040283529160200191611549565b820191906000526020600020905b81548152906001019060200180831161152c57829003601f168201915b5050505050905081565b61155d8282612105565b5050565b6000611589836000018373ffffffffffffffffffffffffffffffffffffffff1660001b6121e5565b905092915050565b60007f780e9d63000000000000000000000000000000000000000000000000000000007bffffffffffffffffffffffffffffffffffffffffffffffffffffffff1916827bffffffffffffffffffffffffffffffffffffffffffffffffffffffff19161480611604575061160382612255565b5b9050919050565b60008073ffffffffffffffffffffffffffffffffffffffff166004600084815260200190815260200160002060009054906101000a900473ffffffffffffffffffffffffffffffffffffffff1673ffffffffffffffffffffffffffffffffffffffff1614159050919050565b600033905090565b816006600083815260200190815260200160002060006101000a81548173ffffffffffffffffffffffffffffffffffffffff021916908373ffffffffffffffffffffffffffffffffffffffff160217905550808273ffffffffffffffffffffffffffffffffffffffff166116f283610cd7565b73ffffffffffffffffffffffffffffffffffffffff167f8c5be1e5ebec7d5bd14f71427d1e84f3dd0314c0f7b2291e5b200ac8c7c3b92560405160405180910390a45050565b60006117438261160b565b611782576040517f08c379a000000000000000000000000000000000000000000000000000000000815260040161177990613c74565b60405180910390fd5b600061178d83610cd7565b90508073ffffffffffffffffffffffffffffffffffffffff168473ffffffffffffffffffffffffffffffffffffffff1614806117fc57508373ffffffffffffffffffffffffffffffffffffffff166117e484610792565b73ffffffffffffffffffffffffffffffffffffffff16145b8061180d575061180c818561140d565b5b91505092915050565b8273ffffffffffffffffffffffffffffffffffffffff1661183682610cd7565b73ffffffffffffffffffffffffffffffffffffffff161461188c576040517f08c379a000000000000000000000000000000000000000000000000000000000815260040161188390613d34565b60405180910390fd5b600073ffffffffffffffffffffffffffffffffffffffff168273ffffffffffffffffffffffffffffffffffffffff1614156118fc576040517f08c379a00000000000000000000000000000000000000000000000000000000081526004016118f390613c34565b60405180910390fd5b611907838383612337565b61191260008261167f565b6001600560008573ffffffffffffffffffffffffffffffffffffffff1673ffffffffffffffffffffffffffffffffffffffff16815260200190815260200160002060008282546119629190613ffa565b925050819055506001600560008473ffffffffffffffffffffffffffffffffffffffff1673ffffffffffffffffffffffffffffffffffffffff16815260200190815260200160002060008282546119b99190613f19565b92505081905550816004600083815260200190815260200160002060006101000a81548173ffffffffffffffffffffffffffffffffffffffff021916908373ffffffffffffffffffffffffffffffffffffffff160217905550808273ffffffffffffffffffffffffffffffffffffffff168473ffffffffffffffffffffffffffffffffffffffff167fddf252ad1be2c89b69c2b068fc378daa952ba7f163c4a11628f55a4df523b3ef60405160405180910390a4505050565b611a7b8261099c565b611a8c81611a87611677565b612347565b611a968383612105565b505050565b611aa3611677565b73ffffffffffffffffffffffffffffffffffffffff168173ffffffffffffffffffffffffffffffffffffffff1614611b10576040517f08c379a0000000000000000000000000000000000000000000000000000000008152600401611b0790613e14565b60405180910390fd5b611b1a82826123e4565b5050565b6000611b46836000018373ffffffffffffffffffffffffffffffffffffffff1660001b6124c5565b905092915050565b6000611b5982610cd7565b9050611b6781600084612337565b611b7260008361167f565b6001600560008373ffffffffffffffffffffffffffffffffffffffff1673ffffffffffffffffffffffffffffffffffffffff1681526020019081526020016000206000828254611bc29190613ffa565b925050819055506004600083815260200190815260200160002060006101000a81549073ffffffffffffffffffffffffffffffffffffffff021916905581600073ffffffffffffffffffffffffffffffffffffffff168273ffffffffffffffffffffffffffffffffffffffff167fddf252ad1be2c89b69c2b068fc378daa952ba7f163c4a11628f55a4df523b3ef60405160405180910390a45050565b6000611c6e83600001836125d9565b60001c905092915050565b611c84848484611816565b611c9084848484612604565b611ccf576040517f08c379a0000000000000000000000000000000000000000000000000000000008152600401611cc690613bd4565b60405180910390fd5b50505050565b606060405180602001604052806000815250905090565b60606000821415611d34576040518060400160405280600181526020017f30000000000000000000000000000000000000000000000000000000000000008152509050611e48565b600082905060005b60008214611d66578080611d4f9061417b565b915050600a82611d5f9190613f6f565b9150611d3c565b60008167ffffffffffffffff811115611d8257611d816142e0565b5b6040519080825280601f01601f191660200182016040528015611db45781602001600182028036833780820191505090505b5090505b60008514611e4157600182611dcd9190613ffa565b9150600a85611ddc91906141c4565b6030611de89190613f19565b60f81b818381518110611dfe57611dfd6142b1565b5b60200101907effffffffffffffffffffffffffffffffffffffffffffffffffffffffffffff1916908160001a905350600a85611e3a9190613f6f565b9450611db8565b8093505050505b919050565b6000611e5b8260000161279b565b9050919050565b600081600001549050919050565b600073ffffffffffffffffffffffffffffffffffffffff168273ffffffffffffffffffffffffffffffffffffffff161415611ee0576040517f08c379a0000000000000000000000000000000000000000000000000000000008152600401611ed790613cf4565b60405180910390fd5b611ee98161160b565b15611f29576040517f08c379a0000000000000000000000000000000000000000000000000000000008152600401611f2090613bf4565b60405180910390fd5b611f3560008383612337565b6001600560008473ffffffffffffffffffffffffffffffffffffffff1673ffffffffffffffffffffffffffffffffffffffff1681526020019081526020016000206000828254611f859190613f19565b92505081905550816004600083815260200190815260200160002060006101000a81548173ffffffffffffffffffffffffffffffffffffffff021916908373ffffffffffffffffffffffffffffffffffffffff160217905550808273ffffffffffffffffffffffffffffffffffffffff16600073ffffffffffffffffffffffffffffffffffffffff167fddf252ad1be2c89b69c2b068fc378daa952ba7f163c4a11628f55a4df523b3ef60405160405180910390a45050565b600f604051806020016040528083815250908060018154018082558091505060019003906000526020600020016000909190919091506000820151816000019080519060200190612090929190612ff3565b50505060006001600f805490506120a79190613ffa565b9050806010600085815260200190815260200160002081905550505050565b6001816000016000828254019250508190555050565b6120e58261099c565b6120f6816120f1611677565b612347565b61210083836123e4565b505050565b61210f8282610e70565b6121e157600160008084815260200190815260200160002060000160008373ffffffffffffffffffffffffffffffffffffffff1673ffffffffffffffffffffffffffffffffffffffff16815260200190815260200160002060006101000a81548160ff021916908315150217905550612186611677565b73ffffffffffffffffffffffffffffffffffffffff168173ffffffffffffffffffffffffffffffffffffffff16837f2f8788117e7eff1d82e926ec794901d17c78024a50270940304540a733656f0d60405160405180910390a45b5050565b60006121f183836127ac565b61224a57826000018290806001815401808255809150506001900390600052602060002001600090919091909150558260000180549050836001016000848152602001908152602001600020819055506001905061224f565b600090505b92915050565b60007f80ac58cd000000000000000000000000000000000000000000000000000000007bffffffffffffffffffffffffffffffffffffffffffffffffffffffff1916827bffffffffffffffffffffffffffffffffffffffffffffffffffffffff1916148061232057507f5b5e139f000000000000000000000000000000000000000000000000000000007bffffffffffffffffffffffffffffffffffffffffffffffffffffffff1916827bffffffffffffffffffffffffffffffffffffffffffffffffffffffff1916145b80612330575061232f826127cf565b5b9050919050565b612342838383612849565b505050565b6123518282610e70565b6123e0576123768173ffffffffffffffffffffffffffffffffffffffff1660146128a1565b6123848360001c60206128a1565b604051602001612395929190613a7b565b6040516020818303038152906040526040517f08c379a00000000000000000000000000000000000000000000000000000000081526004016123d79190613b52565b60405180910390fd5b5050565b6123ee8282610e70565b156124c157600080600084815260200190815260200160002060000160008373ffffffffffffffffffffffffffffffffffffffff1673ffffffffffffffffffffffffffffffffffffffff16815260200190815260200160002060006101000a81548160ff021916908315150217905550612466611677565b73ffffffffffffffffffffffffffffffffffffffff168173ffffffffffffffffffffffffffffffffffffffff16837ff6391f5c32d9c69d2a47ea670b442974b53935d1edc7fd64eb21e047a839171b60405160405180910390a45b5050565b600080836001016000848152602001908152602001600020549050600081146125cd5760006001826124f79190613ffa565b905060006001866000018054905061250f9190613ffa565b905081811461257e5760008660000182815481106125305761252f6142b1565b5b9060005260206000200154905080876000018481548110612554576125536142b1565b5b90600052602060002001819055508387600101600083815260200190815260200160002081905550505b8560000180548061259257612591614282565b5b6001900381819060005260206000200160009055905585600101600086815260200190815260200160002060009055600193505050506125d3565b60009150505b92915050565b60008260000182815481106125f1576125f06142b1565b5b9060005260206000200154905092915050565b60006126258473ffffffffffffffffffffffffffffffffffffffff16612add565b1561278e578373ffffffffffffffffffffffffffffffffffffffff1663150b7a0261264e611677565b8786866040518563ffffffff1660e01b81526004016126709493929190613ad0565b602060405180830381600087803b15801561268a57600080fd5b505af19250505080156126bb57506040513d601f19601f820116820180604052508101906126b8919061357a565b60015b61273e573d80600081146126eb576040519150601f19603f3d011682016040523d82523d6000602084013e6126f0565b606091505b50600081511415612736576040517f08c379a000000000000000000000000000000000000000000000000000000000815260040161272d90613bd4565b60405180910390fd5b805181602001fd5b63150b7a0260e01b7bffffffffffffffffffffffffffffffffffffffffffffffffffffffff1916817bffffffffffffffffffffffffffffffffffffffffffffffffffffffff191614915050612793565b600190505b949350505050565b600081600001805490509050919050565b600080836001016000848152602001908152602001600020541415905092915050565b60007f5a05180f000000000000000000000000000000000000000000000000000000007bffffffffffffffffffffffffffffffffffffffffffffffffffffffff1916827bffffffffffffffffffffffffffffffffffffffffffffffffffffffff19161480612842575061284182612af0565b5b9050919050565b612854838383612b6a565b61285c610cc0565b1561289c576040517f08c379a000000000000000000000000000000000000000000000000000000000815260040161289390613b94565b60405180910390fd5b505050565b6060600060028360026128b49190613fa0565b6128be9190613f19565b67ffffffffffffffff8111156128d7576128d66142e0565b5b6040519080825280601f01601f1916602001820160405280156129095781602001600182028036833780820191505090505b5090507f300000000000000000000000000000000000000000000000000000000000000081600081518110612941576129406142b1565b5b60200101907effffffffffffffffffffffffffffffffffffffffffffffffffffffffffffff1916908160001a9053507f7800000000000000000000000000000000000000000000000000000000000000816001815181106129a5576129a46142b1565b5b60200101907effffffffffffffffffffffffffffffffffffffffffffffffffffffffffffff1916908160001a905350600060018460026129e59190613fa0565b6129ef9190613f19565b90505b6001811115612a8f577f3031323334353637383961626364656600000000000000000000000000000000600f861660108110612a3157612a306142b1565b5b1a60f81b828281518110612a4857612a476142b1565b5b60200101907effffffffffffffffffffffffffffffffffffffffffffffffffffffffffffff1916908160001a905350600485901c945080612a88906140ee565b90506129f2565b5060008414612ad3576040517f08c379a0000000000000000000000000000000000000000000000000000000008152600401612aca90613b74565b60405180910390fd5b8091505092915050565b600080823b905060008111915050919050565b60007f7965db0b000000000000000000000000000000000000000000000000000000007bffffffffffffffffffffffffffffffffffffffffffffffffffffffff1916827bffffffffffffffffffffffffffffffffffffffffffffffffffffffff19161480612b635750612b6282612c7e565b5b9050919050565b612b75838383612ce8565b600073ffffffffffffffffffffffffffffffffffffffff168373ffffffffffffffffffffffffffffffffffffffff161415612bb857612bb381612ced565b612bf7565b8173ffffffffffffffffffffffffffffffffffffffff168373ffffffffffffffffffffffffffffffffffffffff1614612bf657612bf58382612d36565b5b5b600073ffffffffffffffffffffffffffffffffffffffff168273ffffffffffffffffffffffffffffffffffffffff161415612c3a57612c3581612ea3565b612c79565b8273ffffffffffffffffffffffffffffffffffffffff168273ffffffffffffffffffffffffffffffffffffffff1614612c7857612c778282612f74565b5b5b505050565b60007f01ffc9a7000000000000000000000000000000000000000000000000000000007bffffffffffffffffffffffffffffffffffffffffffffffffffffffff1916827bffffffffffffffffffffffffffffffffffffffffffffffffffffffff1916149050919050565b505050565b600a80549050600b600083815260200190815260200160002081905550600a81908060018154018082558091505060019003906000526020600020016000909190919091505550565b60006001612d4384610d89565b612d4d9190613ffa565b9050600060096000848152602001908152602001600020549050818114612e32576000600860008673ffffffffffffffffffffffffffffffffffffffff1673ffffffffffffffffffffffffffffffffffffffff168152602001908152602001600020600084815260200190815260200160002054905080600860008773ffffffffffffffffffffffffffffffffffffffff1673ffffffffffffffffffffffffffffffffffffffff168152602001908152602001600020600084815260200190815260200160002081905550816009600083815260200190815260200160002081905550505b6009600084815260200190815260200160002060009055600860008573ffffffffffffffffffffffffffffffffffffffff1673ffffffffffffffffffffffffffffffffffffffff16815260200190815260200160002060008381526020019081526020016000206000905550505050565b60006001600a80549050612eb79190613ffa565b90506000600b60008481526020019081526020016000205490506000600a8381548110612ee757612ee66142b1565b5b9060005260206000200154905080600a8381548110612f0957612f086142b1565b5b906000526020600020018190555081600b600083815260200190815260200160002081905550600b600085815260200190815260200160002060009055600a805480612f5857612f57614282565b5b6001900381819060005260206000200160009055905550505050565b6000612f7f83610d89565b905081600860008573ffffffffffffffffffffffffffffffffffffffff1673ffffffffffffffffffffffffffffffffffffffff168152602001908152602001600020600083815260200190815260200160002081905550806009600084815260200190815260200160002081905550505050565b828054612fff90614118565b90600052602060002090601f0160209004810192826130215760008555613068565b82601f1061303a57805160ff1916838001178555613068565b82800160010185558215613068579182015b8281111561306757825182559160200191906001019061304c565b5b5090506130759190613106565b5090565b82805461308590614118565b90600052602060002090601f0160209004810192826130a757600085556130f5565b82601f106130b857805485556130f5565b828001600101855582156130f557600052602060002091601f016020900482015b828111156130f45782548255916001019190600101906130d9565b5b5090506131029190613106565b5090565b5b8082111561311f576000816000905550600101613107565b5090565b600061313661313184613e74565b613e4f565b90508281526020810184848401111561315257613151614314565b5b61315d8482856140ac565b509392505050565b600061317861317384613ea5565b613e4f565b90508281526020810184848401111561319457613193614314565b5b61319f8482856140ac565b509392505050565b6000813590506131b6816149b8565b92915050565b6000813590506131cb816149cf565b92915050565b6000813590506131e0816149e6565b92915050565b6000813590506131f5816149fd565b92915050565b60008151905061320a816149fd565b92915050565b600082601f8301126132255761322461430f565b5b8135613235848260208601613123565b91505092915050565b600082601f8301126132535761325261430f565b5b8135613263848260208601613165565b91505092915050565b60008135905061327b81614a14565b92915050565b6000602082840312156132975761329661431e565b5b60006132a5848285016131a7565b91505092915050565b600080604083850312156132c5576132c461431e565b5b60006132d3858286016131a7565b92505060206132e4858286016131a7565b9150509250929050565b6000806000606084860312156133075761330661431e565b5b6000613315868287016131a7565b9350506020613326868287016131a7565b92505060406133378682870161326c565b9150509250925092565b6000806000806080858703121561335b5761335a61431e565b5b6000613369878288016131a7565b945050602061337a878288016131a7565b935050604061338b8782880161326c565b925050606085013567ffffffffffffffff8111156133ac576133ab614319565b5b6133b887828801613210565b91505092959194509250565b600080604083850312156133db576133da61431e565b5b60006133e9858286016131a7565b92505060206133fa858286016131bc565b9150509250929050565b6000806040838503121561341b5761341a61431e565b5b6000613429858286016131a7565b925050602083013567ffffffffffffffff81111561344a57613449614319565b5b6134568582860161323e565b9150509250929050565b600080604083850312156134775761347661431e565b5b6000613485858286016131a7565b92505060206134968582860161326c565b9150509250929050565b6000602082840312156134b6576134b561431e565b5b60006134c4848285016131d1565b91505092915050565b600080604083850312156134e4576134e361431e565b5b60006134f2858286016131d1565b9250506020613503858286016131a7565b9150509250929050565b600080604083850312156135245761352361431e565b5b6000613532858286016131d1565b92505060206135438582860161326c565b9150509250929050565b6000602082840312156135635761356261431e565b5b6000613571848285016131e6565b91505092915050565b6000602082840312156135905761358f61431e565b5b600061359e848285016131fb565b91505092915050565b6000602082840312156135bd576135bc61431e565b5b60006135cb8482850161326c565b91505092915050565b600080604083850312156135eb576135ea61431e565b5b60006135f98582860161326c565b925050602083013567ffffffffffffffff81111561361a57613619614319565b5b6136268582860161323e565b9150509250929050565b6136398161402e565b82525050565b61364881614040565b82525050565b6136578161404c565b82525050565b600061366882613ed6565b6136728185613eec565b93506136828185602086016140bb565b61368b81614323565b840191505092915050565b60006136a182613ee1565b6136ab8185613efd565b93506136bb8185602086016140bb565b6136c481614323565b840191505092915050565b60006136da82613ee1565b6136e48185613f0e565b93506136f48185602086016140bb565b80840191505092915050565b600061370d602083613efd565b915061371882614334565b602082019050919050565b6000613730602b83613efd565b915061373b8261435d565b604082019050919050565b6000613753602b83613efd565b915061375e826143ac565b604082019050919050565b6000613776603283613efd565b9150613781826143fb565b604082019050919050565b6000613799601c83613efd565b91506137a48261444a565b602082019050919050565b60006137bc602883613efd565b91506137c782614473565b604082019050919050565b60006137df602483613efd565b91506137ea826144c2565b604082019050919050565b6000613802601983613efd565b915061380d82614511565b602082019050919050565b6000613825602c83613efd565b91506138308261453a565b604082019050919050565b6000613848603883613efd565b915061385382614589565b604082019050919050565b600061386b602a83613efd565b9150613876826145d8565b604082019050919050565b600061388e602983613efd565b915061389982614627565b604082019050919050565b60006138b1602083613efd565b91506138bc82614676565b602082019050919050565b60006138d4602c83613efd565b91506138df8261469f565b604082019050919050565b60006138f7602983613efd565b9150613902826146ee565b604082019050919050565b600061391a602f83613efd565b91506139258261473d565b604082019050919050565b600061393d602183613efd565b91506139488261478c565b604082019050919050565b6000613960603183613efd565b915061396b826147db565b604082019050919050565b6000613983602c83613efd565b915061398e8261482a565b604082019050919050565b60006139a6601783613f0e565b91506139b182614879565b601782019050919050565b60006139c9603783613efd565b91506139d4826148a2565b604082019050919050565b60006139ec603083613efd565b91506139f7826148f1565b604082019050919050565b6000613a0f601183613f0e565b9150613a1a82614940565b601182019050919050565b6000613a32602f83613efd565b9150613a3d82614969565b604082019050919050565b613a51816140a2565b82525050565b6000613a6382856136cf565b9150613a6f82846136cf565b91508190509392505050565b6000613a8682613999565b9150613a9282856136cf565b9150613a9d82613a02565b9150613aa982846136cf565b91508190509392505050565b6000602082019050613aca6000830184613630565b92915050565b6000608082019050613ae56000830187613630565b613af26020830186613630565b613aff6040830185613a48565b8181036060830152613b11818461365d565b905095945050505050565b6000602082019050613b31600083018461363f565b92915050565b6000602082019050613b4c600083018461364e565b92915050565b60006020820190508181036000830152613b6c8184613696565b905092915050565b60006020820190508181036000830152613b8d81613700565b9050919050565b60006020820190508181036000830152613bad81613723565b9050919050565b60006020820190508181036000830152613bcd81613746565b9050919050565b60006020820190508181036000830152613bed81613769565b9050919050565b60006020820190508181036000830152613c0d8161378c565b9050919050565b60006020820190508181036000830152613c2d816137af565b9050919050565b60006020820190508181036000830152613c4d816137d2565b9050919050565b60006020820190508181036000830152613c6d816137f5565b9050919050565b60006020820190508181036000830152613c8d81613818565b9050919050565b60006020820190508181036000830152613cad8161383b565b9050919050565b60006020820190508181036000830152613ccd8161385e565b9050919050565b60006020820190508181036000830152613ced81613881565b9050919050565b60006020820190508181036000830152613d0d816138a4565b9050919050565b60006020820190508181036000830152613d2d816138c7565b9050919050565b60006020820190508181036000830152613d4d816138ea565b9050919050565b60006020820190508181036000830152613d6d8161390d565b9050919050565b60006020820190508181036000830152613d8d81613930565b9050919050565b60006020820190508181036000830152613dad81613953565b9050919050565b60006020820190508181036000830152613dcd81613976565b9050919050565b60006020820190508181036000830152613ded816139bc565b9050919050565b60006020820190508181036000830152613e0d816139df565b9050919050565b60006020820190508181036000830152613e2d81613a25565b9050919050565b6000602082019050613e496000830184613a48565b92915050565b6000613e59613e6a565b9050613e65828261414a565b919050565b6000604051905090565b600067ffffffffffffffff821115613e8f57613e8e6142e0565b5b613e9882614323565b9050602081019050919050565b600067ffffffffffffffff821115613ec057613ebf6142e0565b5b613ec982614323565b9050602081019050919050565b600081519050919050565b600081519050919050565b600082825260208201905092915050565b600082825260208201905092915050565b600081905092915050565b6000613f24826140a2565b9150613f2f836140a2565b9250827fffffffffffffffffffffffffffffffffffffffffffffffffffffffffffffffff03821115613f6457613f636141f5565b5b828201905092915050565b6000613f7a826140a2565b9150613f85836140a2565b925082613f9557613f94614224565b5b828204905092915050565b6000613fab826140a2565b9150613fb6836140a2565b9250817fffffffffffffffffffffffffffffffffffffffffffffffffffffffffffffffff0483118215151615613fef57613fee6141f5565b5b828202905092915050565b6000614005826140a2565b9150614010836140a2565b925082821015614023576140226141f5565b5b828203905092915050565b600061403982614082565b9050919050565b60008115159050919050565b6000819050919050565b60007fffffffff0000000000000000000000000000000000000000000000000000000082169050919050565b600073ffffffffffffffffffffffffffffffffffffffff82169050919050565b6000819050919050565b82818337600083830152505050565b60005b838110156140d95780820151818401526020810190506140be565b838111156140e8576000848401525b50505050565b60006140f9826140a2565b9150600082141561410d5761410c6141f5565b5b600182039050919050565b6000600282049050600182168061413057607f821691505b6020821081141561414457614143614253565b5b50919050565b61415382614323565b810181811067ffffffffffffffff82111715614172576141716142e0565b5b80604052505050565b6000614186826140a2565b91507fffffffffffffffffffffffffffffffffffffffffffffffffffffffffffffffff8214156141b9576141b86141f5565b5b600182019050919050565b60006141cf826140a2565b91506141da836140a2565b9250826141ea576141e9614224565b5b828206905092915050565b7f4e487b7100000000000000000000000000000000000000000000000000000000600052601160045260246000fd5b7f4e487b7100000000000000000000000000000000000000000000000000000000600052601260045260246000fd5b7f4e487b7100000000000000000000000000000000000000000000000000000000600052602260045260246000fd5b7f4e487b7100000000000000000000000000000000000000000000000000000000600052603160045260246000fd5b7f4e487b7100000000000000000000000000000000000000000000000000000000600052603260045260246000fd5b7f4e487b7100000000000000000000000000000000000000000000000000000000600052604160045260246000fd5b600080fd5b600080fd5b600080fd5b600080fd5b6000601f19601f8301169050919050565b7f537472696e67733a20686578206c656e67746820696e73756666696369656e74600082015250565b7f4552433732315061757361626c653a20746f6b656e207472616e73666572207760008201527f68696c6520706175736564000000000000000000000000000000000000000000602082015250565b7f455243373231456e756d657261626c653a206f776e657220696e646578206f7560008201527f74206f6620626f756e6473000000000000000000000000000000000000000000602082015250565b7f4552433732313a207472616e7366657220746f206e6f6e20455243373231526560008201527f63656976657220696d706c656d656e7465720000000000000000000000000000602082015250565b7f4552433732313a20746f6b656e20616c7265616479206d696e74656400000000600082015250565b7f56436f6e74726163743a206d7573742068617665206d696e74657220726f6c6560008201527f20746f206d696e74000000000000000000000000000000000000000000000000602082015250565b7f4552433732313a207472616e7366657220746f20746865207a65726f2061646460008201527f7265737300000000000000000000000000000000000000000000000000000000602082015250565b7f4552433732313a20617070726f766520746f2063616c6c657200000000000000600082015250565b7f4552433732313a206f70657261746f7220717565727920666f72206e6f6e657860008201527f697374656e7420746f6b656e0000000000000000000000000000000000000000602082015250565b7f4552433732313a20617070726f76652063616c6c6572206973206e6f74206f7760008201527f6e6572206e6f7220617070726f76656420666f7220616c6c0000000000000000602082015250565b7f4552433732313a2062616c616e636520717565727920666f7220746865207a6560008201527f726f206164647265737300000000000000000000000000000000000000000000602082015250565b7f4552433732313a206f776e657220717565727920666f72206e6f6e657869737460008201527f656e7420746f6b656e0000000000000000000000000000000000000000000000602082015250565b7f4552433732313a206d696e7420746f20746865207a65726f2061646472657373600082015250565b7f4552433732313a20617070726f76656420717565727920666f72206e6f6e657860008201527f697374656e7420746f6b656e0000000000000000000000000000000000000000602082015250565b7f4552433732313a207472616e73666572206f6620746f6b656e2074686174206960008201527f73206e6f74206f776e0000000000000000000000000000000000000000000000602082015250565b7f4552433732314d657461646174613a2055524920717565727920666f72206e6f60008201527f6e6578697374656e7420746f6b656e0000000000000000000000000000000000602082015250565b7f4552433732313a20617070726f76616c20746f2063757272656e74206f776e6560008201527f7200000000000000000000000000000000000000000000000000000000000000602082015250565b7f4552433732313a207472616e736665722063616c6c6572206973206e6f74206f60008201527f776e6572206e6f7220617070726f766564000000000000000000000000000000602082015250565b7f455243373231456e756d657261626c653a20676c6f62616c20696e646578206f60008201527f7574206f6620626f756e64730000000000000000000000000000000000000000602082015250565b7f416363657373436f6e74726f6c3a206163636f756e7420000000000000000000600082015250565b7f56436f6e74726163743a206d7573742068617665206d696e74657220726f6c6560008201527f20746f207570646174652070726f706572747920757269000000000000000000602082015250565b7f4552433732314275726e61626c653a2063616c6c6572206973206e6f74206f7760008201527f6e6572206e6f7220617070726f76656400000000000000000000000000000000602082015250565b7f206973206d697373696e6720726f6c6520000000000000000000000000000000600082015250565b7f416363657373436f6e74726f6c3a2063616e206f6e6c792072656e6f756e636560008201527f20726f6c657320666f722073656c660000000000000000000000000000000000602082015250565b6149c18161402e565b81146149cc57600080fd5b50565b6149d881614040565b81146149e357600080fd5b50565b6149ef8161404c565b81146149fa57600080fd5b50565b614a0681614056565b8114614a1157600080fd5b50565b614a1d816140a2565b8114614a2857600080fd5b5056fea264697066735822122040d2601e921e38d76ad66b337f2ac3b311bbe449097b6382f23f0e7d30937d9c64736f6c63430008070033",
  "immutableReferences": {},
  "source": "// SPDX-License-Identifier: MIT\npragma solidity ^0.8.0;\n\nimport \"./ERC721/ERC721.sol\";\nimport \"./access/AccessControlEnumerable.sol\";\nimport \"./ERC721/extensions/ERC721Enumerable.sol\";\nimport \"./ERC721/extensions/ERC721Burnable.sol\";\nimport \"./ERC721/extensions/ERC721Pausable.sol\";\nimport \"./utils/Counters.sol\";\n\n/**\n * @dev Real Estate NFT\n * @author Burt Snyder / Open Zeppelin\n */\ncontract VContract is\n    Context,\n    AccessControlEnumerable,\n    ERC721Enumerable,\n    ERC721Burnable,\n    ERC721Pausable\n{\n    using Counters for Counters.Counter;\n    bytes32 public constant MINTER_ROLE = keccak256(\"MINTER_ROLE\");\n    bytes32 public constant PAUSER_ROLE = keccak256(\"PAUSER_ROLE\");\n    string private _baseTokenURI;\n    Counters.Counter private _tokenIdTracker;\n\n    struct Property {\n        string URI;\n    }\n\n    Property[] public properties;\n    mapping(uint256 => uint256) public propertyToToken;\n\n    /**\n     * @dev Grants `DEFAULT_ADMIN_ROLE`, `MINTER_ROLE` and `PAUSER_ROLE` to the\n     * account that deploys the contract.\n     *\n     * Token URIs will be autogenerated based on `baseURI` and their token IDs.\n     * See {ERC721-tokenURI}.\n     */\n    constructor(\n        string memory name,\n        string memory symbol,\n        string memory baseTokenURI\n    ) ERC721(name, symbol) {\n        _baseTokenURI = baseTokenURI;\n        _setupRole(DEFAULT_ADMIN_ROLE, _msgSender());\n        _setupRole(MINTER_ROLE, _msgSender());\n        _setupRole(PAUSER_ROLE, _msgSender());\n    }\n\n    /**\n     * @dev Checks mapping for property uri\n     * that is established on mint. Returns property uri based\n     * on token id.\n     */\n    function propertyURI(uint256 tokenId)\n        public\n        view\n        virtual\n        returns (string memory)\n    {\n        uint256 _id = propertyToToken[tokenId];\n        return properties[_id].URI;\n    }\n\n    /**\n     * @dev private add property uri to mapping set on mint\n     */\n    function _setPropertyURI(uint256 tokenId, string memory _uri) internal {\n        properties.push(Property(_uri));\n        uint256 id = properties.length - 1;\n        propertyToToken[tokenId] = id;\n    }\n\n    /**\n     * @dev update property uri to mapping by minter\n     */\n    function updatePropertyURI(uint256 tokenId, string memory _uri) external {\n        require(\n            hasRole(MINTER_ROLE, _msgSender()),\n            \"VContract: must have minter role to update property uri\"\n        );\n        uint256 _id = propertyToToken[tokenId];\n        Property storage _property = properties[_id];\n        _property.URI = _uri;\n        properties[_id] = _property;\n    }\n\n    /**\n     * @dev Creates a new token for `to`. Its token ID will be automatically\n     * assigned (and available on the emitted {IERC721-Transfer} event), and the token\n     * URI autogenerated based on the base URI passed at construction.\n     *\n     * See {ERC721-_mint}.\n     *\n     * Requirements:\n     *\n     * - the caller must have the `MINTER_ROLE`.\n     */\n    function mint(address to, string memory _propertyURI) public virtual {\n        require(\n            hasRole(MINTER_ROLE, _msgSender()),\n            \"VContract: must have minter role to mint\"\n        );\n        // We cannot just use balanceOf to create the new tokenId because tokens\n        // can be burned (destroyed), so we need a separate counter.\n        _mint(to, _tokenIdTracker.current());\n        _setPropertyURI(_tokenIdTracker.current(), _propertyURI);\n        _tokenIdTracker.increment();\n    }\n\n    function _beforeTokenTransfer(\n        address from,\n        address to,\n        uint256 tokenId\n    ) internal virtual override(ERC721, ERC721Enumerable, ERC721Pausable) {\n        super._beforeTokenTransfer(from, to, tokenId);\n    }\n\n    /**\n     * @dev See {IERC165-supportsInterface}.\n     */\n    function supportsInterface(bytes4 interfaceId)\n        public\n        view\n        virtual\n        override(AccessControlEnumerable, ERC721, ERC721Enumerable)\n        returns (bool)\n    {\n        return super.supportsInterface(interfaceId);\n    }\n}\n",
  "sourcePath": "/Users/burtsnyder/Documents/VALOREM_FOUNDATION/valorem-nft/TEST_truffle_2/contracts/VContract.sol",
  "compiler": {
    "name": "solc",
    "version": "0.8.7+commit.e28d00a7.Emscripten.clang"
  },
  "schemaVersion": "3.4.3",
  "updatedAt": "2021-08-18T19:08:32.484Z",
  "networkType": "ethereum",
  "devdoc": {
    "author": "Burt Snyder / Open Zeppelin",
    "details": "Real Estate NFT",
    "kind": "dev",
    "methods": {
      "approve(address,uint256)": {
        "details": "See {IERC721-approve}."
      },
      "balanceOf(address)": {
        "details": "See {IERC721-balanceOf}."
      },
      "burn(uint256)": {
        "details": "Burns `tokenId`. See {ERC721-_burn}. Requirements: - The caller must own `tokenId` or be an approved operator."
      },
      "constructor": {
        "details": "Grants `DEFAULT_ADMIN_ROLE`, `MINTER_ROLE` and `PAUSER_ROLE` to the account that deploys the contract. Token URIs will be autogenerated based on `baseURI` and their token IDs. See {ERC721-tokenURI}."
      },
      "getApproved(uint256)": {
        "details": "See {IERC721-getApproved}."
      },
      "getRoleAdmin(bytes32)": {
        "details": "Returns the admin role that controls `role`. See {grantRole} and {revokeRole}. To change a role's admin, use {_setRoleAdmin}."
      },
      "getRoleMember(bytes32,uint256)": {
        "details": "Returns one of the accounts that have `role`. `index` must be a value between 0 and {getRoleMemberCount}, non-inclusive. Role bearers are not sorted in any particular way, and their ordering may change at any point. WARNING: When using {getRoleMember} and {getRoleMemberCount}, make sure you perform all queries on the same block. See the following https://forum.openzeppelin.com/t/iterating-over-elements-on-enumerableset-in-openzeppelin-contracts/2296[forum post] for more information."
      },
      "getRoleMemberCount(bytes32)": {
        "details": "Returns the number of accounts that have `role`. Can be used together with {getRoleMember} to enumerate all bearers of a role."
      },
      "grantRole(bytes32,address)": {
        "details": "Overload {grantRole} to track enumerable memberships"
      },
      "hasRole(bytes32,address)": {
        "details": "Returns `true` if `account` has been granted `role`."
      },
      "isApprovedForAll(address,address)": {
        "details": "See {IERC721-isApprovedForAll}."
      },
      "mint(address,string)": {
        "details": "Creates a new token for `to`. Its token ID will be automatically assigned (and available on the emitted {IERC721-Transfer} event), and the token URI autogenerated based on the base URI passed at construction. See {ERC721-_mint}. Requirements: - the caller must have the `MINTER_ROLE`."
      },
      "name()": {
        "details": "See {IERC721Metadata-name}."
      },
      "ownerOf(uint256)": {
        "details": "See {IERC721-ownerOf}."
      },
      "paused()": {
        "details": "Returns true if the contract is paused, and false otherwise."
      },
      "propertyURI(uint256)": {
        "details": "Checks mapping for property uri that is established on mint. Returns property uri based on token id."
      },
      "renounceRole(bytes32,address)": {
        "details": "Overload {renounceRole} to track enumerable memberships"
      },
      "revokeRole(bytes32,address)": {
        "details": "Overload {revokeRole} to track enumerable memberships"
      },
      "safeTransferFrom(address,address,uint256)": {
        "details": "See {IERC721-safeTransferFrom}."
      },
      "safeTransferFrom(address,address,uint256,bytes)": {
        "details": "See {IERC721-safeTransferFrom}."
      },
      "setApprovalForAll(address,bool)": {
        "details": "See {IERC721-setApprovalForAll}."
      },
      "supportsInterface(bytes4)": {
        "details": "See {IERC165-supportsInterface}."
      },
      "symbol()": {
        "details": "See {IERC721Metadata-symbol}."
      },
      "tokenByIndex(uint256)": {
        "details": "See {IERC721Enumerable-tokenByIndex}."
      },
      "tokenOfOwnerByIndex(address,uint256)": {
        "details": "See {IERC721Enumerable-tokenOfOwnerByIndex}."
      },
      "tokenURI(uint256)": {
        "details": "See {IERC721Metadata-tokenURI}."
      },
      "totalSupply()": {
        "details": "See {IERC721Enumerable-totalSupply}."
      },
      "transferFrom(address,address,uint256)": {
        "details": "See {IERC721-transferFrom}."
      },
      "updatePropertyURI(uint256,string)": {
        "details": "update property uri to mapping by minter"
      }
    },
    "version": 1
  },
  "userdoc": {
    "kind": "user",
    "methods": {},
    "version": 1
  }
}